{
    "contractName": "FckDice",
    "abi": [
        {
            "constant": true,
            "inputs": [],
            "name": "JACKPOT_MODULO",
            "outputs": [
                {
                    "name": "",
                    "type": "uint256"
                }
            ],
            "payable": false,
            "stateMutability": "view",
            "type": "function"
        },
        {
            "constant": true,
            "inputs": [
                {
                    "name": "reveal",
                    "type": "uint256"
                }
            ],
            "name": "getBetInfoByReveal",
            "outputs": [
                {
                    "name": "commit",
                    "type": "uint256"
                },
                {
                    "name": "amount",
                    "type": "uint256"
                },
                {
                    "name": "modulo",
                    "type": "uint8"
                },
                {
                    "name": "rollUnder",
                    "type": "uint8"
                },
                {
                    "name": "placeBlockNumber",
                    "type": "uint256"
                },
                {
                    "name": "mask",
                    "type": "uint256"
                },
                {
                    "name": "gambler",
                    "type": "address"
                }
            ],
            "payable": false,
            "stateMutability": "view",
            "type": "function"
        },
        {
            "constant": true,
            "inputs": [],
            "name": "MIN_JACKPOT_BET",
            "outputs": [
                {
                    "name": "",
                    "type": "uint256"
                }
            ],
            "payable": false,
            "stateMutability": "view",
            "type": "function"
        },
        {
            "constant": false,
            "inputs": [
                {
                    "name": "o",
                    "type": "address"
                }
            ],
            "name": "setOwner1",
            "outputs": [],
            "payable": false,
            "stateMutability": "nonpayable",
            "type": "function"
        },
        {
            "constant": true,
            "inputs": [],
            "name": "killed",
            "outputs": [
                {
                    "name": "",
                    "type": "bool"
                }
            ],
            "payable": false,
            "stateMutability": "view",
            "type": "function"
        },
        {
            "constant": false,
            "inputs": [
                {
                    "name": "betMask",
                    "type": "uint256"
                },
                {
                    "name": "modulo",
                    "type": "uint256"
                },
                {
                    "name": "commitLastBlock",
                    "type": "uint256"
                },
                {
                    "name": "commit",
                    "type": "uint256"
                },
                {
                    "name": "r",
                    "type": "bytes32"
                },
                {
                    "name": "s",
                    "type": "bytes32"
                },
                {
                    "name": "source",
                    "type": "uint256"
                }
            ],
            "name": "placeBet",
            "outputs": [],
            "payable": true,
            "stateMutability": "payable",
            "type": "function"
        },
        {
            "constant": false,
            "inputs": [],
            "name": "kill",
            "outputs": [],
            "payable": false,
            "stateMutability": "nonpayable",
            "type": "function"
        },
        {
            "constant": true,
            "inputs": [],
            "name": "secretSigner",
            "outputs": [
                {
                    "name": "",
                    "type": "address"
                }
            ],
            "payable": false,
            "stateMutability": "view",
            "type": "function"
        },
        {
            "constant": true,
            "inputs": [],
            "name": "owner2",
            "outputs": [
                {
                    "name": "",
                    "type": "address"
                }
            ],
            "payable": false,
            "stateMutability": "view",
            "type": "function"
        },
        {
            "constant": true,
            "inputs": [],
            "name": "HOUSE_EDGE_OF_TEN_THOUSAND",
            "outputs": [
                {
                    "name": "",
                    "type": "uint256"
                }
            ],
            "payable": false,
            "stateMutability": "view",
            "type": "function"
        },
        {
            "constant": true,
            "inputs": [],
            "name": "jackpotSize",
            "outputs": [
                {
                    "name": "",
                    "type": "uint128"
                }
            ],
            "payable": false,
            "stateMutability": "view",
            "type": "function"
        },
        {
            "constant": false,
            "inputs": [
                {
                    "name": "o",
                    "type": "address"
                }
            ],
            "name": "setOwner2",
            "outputs": [],
            "payable": false,
            "stateMutability": "nonpayable",
            "type": "function"
        },
        {
            "constant": false,
            "inputs": [
                {
                    "name": "_maxProfit",
                    "type": "uint128"
                }
            ],
            "name": "setMaxProfit",
            "outputs": [],
            "payable": false,
            "stateMutability": "nonpayable",
            "type": "function"
        },
        {
            "constant": true,
            "inputs": [],
            "name": "croupier",
            "outputs": [
                {
                    "name": "",
                    "type": "address"
                }
            ],
            "payable": false,
            "stateMutability": "view",
            "type": "function"
        },
        {
            "constant": true,
            "inputs": [],
            "name": "owner1",
            "outputs": [
                {
                    "name": "",
                    "type": "address"
                }
            ],
            "payable": false,
            "stateMutability": "view",
            "type": "function"
        },
        {
            "constant": true,
            "inputs": [
                {
                    "name": "commit",
                    "type": "uint256"
                }
            ],
            "name": "getBetInfo",
            "outputs": [
                {
                    "name": "amount",
                    "type": "uint256"
                },
                {
                    "name": "modulo",
                    "type": "uint8"
                },
                {
                    "name": "rollUnder",
                    "type": "uint8"
                },
                {
                    "name": "placeBlockNumber",
                    "type": "uint256"
                },
                {
                    "name": "mask",
                    "type": "uint256"
                },
                {
                    "name": "gambler",
                    "type": "address"
                }
            ],
            "payable": false,
            "stateMutability": "view",
            "type": "function"
        },
        {
            "constant": true,
            "inputs": [],
            "name": "maxProfit",
            "outputs": [
                {
                    "name": "",
                    "type": "uint128"
                }
            ],
            "payable": false,
            "stateMutability": "view",
            "type": "function"
        },
        {
            "constant": true,
            "inputs": [],
            "name": "HOUSE_EDGE_MINIMUM_AMOUNT",
            "outputs": [
                {
                    "name": "",
                    "type": "uint256"
                }
            ],
            "payable": false,
            "stateMutability": "view",
            "type": "function"
        },
        {
            "constant": true,
            "inputs": [],
            "name": "JACKPOT_FEE",
            "outputs": [
                {
                    "name": "",
                    "type": "uint256"
                }
            ],
            "payable": false,
            "stateMutability": "view",
            "type": "function"
        },
        {
            "constant": false,
            "inputs": [
                {
                    "name": "beneficiary",
                    "type": "address"
                },
                {
                    "name": "withdrawAmount",
                    "type": "uint256"
                }
            ],
            "name": "withdrawFunds",
            "outputs": [],
            "payable": false,
            "stateMutability": "nonpayable",
            "type": "function"
        },
        {
            "constant": false,
            "inputs": [
                {
                    "name": "reveal",
                    "type": "uint256"
                },
                {
                    "name": "blockHash",
                    "type": "bytes32"
                }
            ],
            "name": "settleBet",
            "outputs": [],
            "payable": false,
            "stateMutability": "nonpayable",
            "type": "function"
        },
        {
            "constant": false,
            "inputs": [
                {
                    "name": "increaseAmount",
                    "type": "uint256"
                }
            ],
            "name": "increaseJackpot",
            "outputs": [],
            "payable": false,
            "stateMutability": "nonpayable",
            "type": "function"
        },
        {
            "constant": false,
            "inputs": [
                {
                    "name": "newSecretSigner",
                    "type": "address"
                }
            ],
            "name": "setSecretSigner",
            "outputs": [],
            "payable": false,
            "stateMutability": "nonpayable",
            "type": "function"
        },
        {
            "constant": true,
            "inputs": [],
            "name": "lockedInBets",
            "outputs": [
                {
                    "name": "",
                    "type": "uint128"
                }
            ],
            "payable": false,
            "stateMutability": "view",
            "type": "function"
        },
        {
            "constant": false,
            "inputs": [
                {
                    "name": "commit",
                    "type": "uint256"
                }
            ],
            "name": "refundBet",
            "outputs": [],
            "payable": false,
            "stateMutability": "nonpayable",
            "type": "function"
        },
        {
            "constant": false,
            "inputs": [
                {
                    "name": "newCroupier",
                    "type": "address"
                }
            ],
            "name": "setCroupier",
            "outputs": [],
            "payable": false,
            "stateMutability": "nonpayable",
            "type": "function"
        },
        {
            "inputs": [
                {
                    "name": "_owner1",
                    "type": "address"
                },
                {
                    "name": "_owner2",
                    "type": "address"
                },
                {
                    "name": "_secretSigner",
                    "type": "address"
                },
                {
                    "name": "_croupier",
                    "type": "address"
                },
                {
                    "name": "_maxProfit",
                    "type": "uint128"
                }
            ],
            "payable": true,
            "stateMutability": "payable",
            "type": "constructor"
        },
        {
            "payable": true,
            "stateMutability": "payable",
            "type": "fallback"
        },
        {
            "anonymous": false,
            "inputs": [
                {
                    "indexed": true,
                    "name": "beneficiary",
                    "type": "address"
                },
                {
                    "indexed": false,
                    "name": "amount",
                    "type": "uint256"
                },
                {
                    "indexed": false,
                    "name": "commit",
                    "type": "uint256"
                }
            ],
            "name": "FailedPayment",
            "type": "event"
        },
        {
            "anonymous": false,
            "inputs": [
                {
                    "indexed": true,
                    "name": "beneficiary",
                    "type": "address"
                },
                {
                    "indexed": false,
                    "name": "amount",
                    "type": "uint256"
                },
                {
                    "indexed": false,
                    "name": "commit",
                    "type": "uint256"
                }
            ],
            "name": "Payment",
            "type": "event"
        },
        {
            "anonymous": false,
            "inputs": [
                {
                    "indexed": true,
                    "name": "beneficiary",
                    "type": "address"
                },
                {
                    "indexed": false,
                    "name": "amount",
                    "type": "uint256"
                },
                {
                    "indexed": false,
                    "name": "commit",
                    "type": "uint256"
                }
            ],
            "name": "JackpotPayment",
            "type": "event"
        },
        {
            "anonymous": false,
            "inputs": [
                {
                    "indexed": false,
                    "name": "commit",
                    "type": "uint256"
                },
                {
                    "indexed": false,
                    "name": "source",
                    "type": "uint256"
                }
            ],
            "name": "Commit",
            "type": "event"
        }
    ],
    "bytecode": "6080604052604051611f3f380380611f3f833981810160405260a081101561002657600080fd5b508051602082015160408301516060840151608090940151600080546001600160a01b038087166001600160a01b0319928316179092556001805483871690831617905560038054838616908316179055600680549288169290911691909117905592939192909190693f870857a3e0e38000006001600160801b038216106100fa576040517f08c379a0000000000000000000000000000000000000000000000000000000008152600401808060200182810382526022815260200180611f1d6022913960400191505060405180910390fd5b6002805460ff60801b196001600160801b039093166001600160801b03199091161791909116905550505050611de8806101356000396000f3fe6080604052600436106101815760003560e01c80636b5c5f39116100d1578063c10753291161008a578063d702087f11610064578063d702087f14610569578063df88126f1461059c578063e1fdb4b4146105b1578063f8bb201c146105db57610181565b8063c1075329146104d6578063ca722cdc1461050f578063d6d30a511461053f57610181565b80636b5c5f3914610402578063736889141461041757806379141f801461042c578063b539cd5514610497578063bcce6040146104ac578063bf020f61146104c157610181565b806341c0e1b51161013e578063537af6c411610118578063537af6c41461035657806357246d231461036b5780635825884f1461039c5780635f7bb7f1146103cf57610181565b806341c0e1b5146102fb5780634d61537f14610310578063527097251461034157610181565b806301f60217146101b157806307220134146101d85780630cf9349d146102495780631b5806201461025e5780631f3a0e4114610291578063403a0a78146102ba575b6001546001600160a01b03163314156101af576001546101af906001600160a01b031634606481020161060e565b005b3480156101bd57600080fd5b506101c6610727565b60408051918252519081900360200190f35b3480156101e457600080fd5b50610202600480360360208110156101fb57600080fd5b503561072d565b60408051978852602088019690965260ff94851687870152929093166060860152608085015260a08401919091526001600160a01b031660c0830152519081900360e00190f35b34801561025557600080fd5b506101c6610773565b34801561026a57600080fd5b506101af6004803603602081101561028157600080fd5b50356001600160a01b031661077f565b34801561029d57600080fd5b506102a6610848565b604080519115158252519081900360200190f35b6101af600480360360e08110156102d057600080fd5b5080359060208101359060408101359060608101359060808101359060a08101359060c00135610858565b34801561030757600080fd5b506101af610ece565b34801561031c57600080fd5b50610325610fdc565b604080516001600160a01b039092168252519081900360200190f35b34801561034d57600080fd5b50610325610feb565b34801561036257600080fd5b506101c6610ffa565b34801561037757600080fd5b50610380610fff565b604080516001600160801b039092168252519081900360200190f35b3480156103a857600080fd5b506101af600480360360208110156103bf57600080fd5b50356001600160a01b031661100e565b3480156103db57600080fd5b506101af600480360360208110156103f257600080fd5b50356001600160801b03166110d7565b34801561040e57600080fd5b506103256111a8565b34801561042357600080fd5b506103256111b7565b34801561043857600080fd5b506104566004803603602081101561044f57600080fd5b50356111c6565b6040805196875260ff95861660208801529390941685840152606085019190915260808401526001600160a01b0390911660a0830152519081900360c00190f35b3480156104a357600080fd5b50610380611232565b3480156104b857600080fd5b506101c6611241565b3480156104cd57600080fd5b506101c661124c565b3480156104e257600080fd5b506101af600480360360408110156104f957600080fd5b506001600160a01b03813516906020013561060e565b34801561051b57600080fd5b506101af6004803603604081101561053257600080fd5b5080359060200135611257565b34801561054b57600080fd5b506101af6004803603602081101561056257600080fd5b50356113b8565b34801561057557600080fd5b506101af6004803603602081101561058c57600080fd5b50356001600160a01b03166114e7565b3480156105a857600080fd5b50610380611567565b3480156105bd57600080fd5b506101af600480360360208110156105d457600080fd5b503561157d565b3480156105e757600080fd5b506101af600480360360208110156105fe57600080fd5b50356001600160a01b03166116cc565b6000546001600160a01b031633148061063157506001546001600160a01b031633145b61066c5760405162461bcd60e51b8152600401808060200182810382526026815260200180611d1a6026913960400191505060405180910390fd5b30318111156106ac5760405162461bcd60e51b8152600401808060200182810382526024815260200180611d406024913960400191505060405180910390fd5b60045430316001600160801b03808316600160801b90930481169290920190911682011115610716576040805162461bcd60e51b81526020600482015260116024820152702737ba1032b737bab3b410333ab732399760791b604482015290519081900360640190fd5b610723828283600061174c565b5050565b6103e881565b60408051602080820184905282518083038201815291830190925280519101206000808080808061075d876111c6565b9b9d949c50929a91995097509095509350915050565b67016345785d8a000081565b6000546001600160a01b03163314806107a257506001546001600160a01b031633145b6107dd5760405162461bcd60e51b8152600401808060200182810382526026815260200180611d1a6026913960400191505060405180910390fd5b6001600160a01b0381166107f057600080fd5b6000546001600160a01b038281169116141561080b57600080fd5b6001546001600160a01b038281169116141561082657600080fd5b600080546001600160a01b0319166001600160a01b0392909216919091179055565b600254600160801b900460ff1681565b600254600160801b900460ff16156108a9576040805162461bcd60e51b815260206004820152600f60248201526e18dbdb9d1c9858dd081ada5b1b1959608a1b604482015290519081900360640190fd5b60008481526005602052604090208054600160601b90046001600160a01b0316156109055760405162461bcd60e51b8152600401808060200182810382526021815260200180611c2e6021913960400191505060405180910390fd5b60028710158015610917575060d88711155b610968576040805162461bcd60e51b815260206004820152601e60248201527f4d6f64756c6f2073686f756c642062652077697468696e2072616e67652e0000604482015290519081900360640190fd5b662386f26fc1000034101580156109895750693f870857a3e0e38000003411155b6109da576040805162461bcd60e51b815260206004820152601e60248201527f416d6f756e742073686f756c642062652077697468696e2072616e67652e0000604482015290519081900360640190fd5b6000881180156109ed5750600160d81b88105b610a3e576040805162461bcd60e51b815260206004820152601c60248201527f4d61736b2073686f756c642062652077697468696e2072616e67652e00000000604482015290519081900360640190fd5b85431115610a89576040805162461bcd60e51b815260206004820152601360248201527221b7b6b6b4ba103430b99032bc3834b932b21760691b604482015290519081900360640190fd5b60408051602080820189905281830188905282518083038401815260608301808552815191830191909120600090915260808301808552819052601b60a084015260c0830188905260e0830187905292516001926101008082019392601f1981019281900390910190855afa158015610b06573d6000803e3d6000fd5b5050604051601f1901516003546001600160a01b039081169116149050610b74576040805162461bcd60e51b815260206004820152601d60248201527f4543445341207369676e6174757265206973206e6f742076616c69642e000000604482015290519081900360640190fd5b60008060288a11610bc8575050603f7e010410410410410410410410410410410410410410410410410410410410417920000000001000000000080000000004000000000200000000018b02160689610cdc565b60508a11610be557610bdb8b6002611808565b91508a9050610cdc565b8960641415610c415760008b118015610bfe5750898b11155b610c395760405162461bcd60e51b815260040180806020018281038252602e815260200180611d64602e913960400191505060405180910390fd5b8a9150610cdc565b60788a11610c5457610bdb8b6003611808565b60a08a11610c6757610bdb8b6004611808565b60c88a11610c7a57610bdb8b6005611808565b60d88a11610c8d57610bdb8b6006611808565b60008b118015610c9d5750898b11155b610cd85760405162461bcd60e51b815260040180806020018281038252602e815260200180611d64602e913960400191505060405180910390fd5b8a91505b600080610cea348d866118be565b60025491935091506001600160801b03163401821115610d51576040805162461bcd60e51b815260206004820152601a60248201527f6d617850726f666974206c696d69742076696f6c6174696f6e2e000000000000604482015290519081900360640190fd5b600480546001600160801b03600160801b808304821686018216810292821692909217808216850182166001600160801b0319919091161792839055303183821692909304811691909101161115610df0576040805162461bcd60e51b815260206004820152601f60248201527f43616e6e6f74206166666f726420746f206c6f73652074686973206265742e00604482015290519081900360640190fd5b604080518b81526020810189905281517facafc53544c2ca5cd4dbfda9282c25a35859f0d4ceb77a8275dca1660b1ed3ad929181900390910190a15050835460018501805464ffffffffff19164364ffffffffff9081169190911716650100000000006001600160d81b0394909416939093029290921790915569ffffffffffffffffffff19163469ffffffffffffffffffff161760ff60501b1916600160501b60ff9a8b16021760ff60581b1916600160581b9190991602979097176bffffffffffffffffffffffff1633600160601b0217905550505050505050565b6000546001600160a01b0316331480610ef157506001546001600160a01b031633145b610f2c5760405162461bcd60e51b8152600401808060200182810382526026815260200180611d1a6026913960400191505060405180910390fd5b600454600160801b90046001600160801b031615610f7b5760405162461bcd60e51b8152600401808060200182810382526048815260200180611cd26048913960600191505060405180910390fd5b6002805460ff60801b1916600160801b179055600480546001600160801b0319169055600080546040516001600160a01b0390911691303180156108fc02929091818181858888f19350505050158015610fd9573d6000803e3d6000fd5b50565b6003546001600160a01b031681565b6001546001600160a01b031681565b606281565b6004546001600160801b031681565b6000546001600160a01b031633148061103157506001546001600160a01b031633145b61106c5760405162461bcd60e51b8152600401808060200182810382526026815260200180611d1a6026913960400191505060405180910390fd5b6001600160a01b03811661107f57600080fd5b6000546001600160a01b038281169116141561109a57600080fd5b6001546001600160a01b03828116911614156110b557600080fd5b600180546001600160a01b0319166001600160a01b0392909216919091179055565b6000546001600160a01b03163314806110fa57506001546001600160a01b031633145b6111355760405162461bcd60e51b8152600401808060200182810382526026815260200180611d1a6026913960400191505060405180910390fd5b693f870857a3e0e3800000816001600160801b0316106111865760405162461bcd60e51b8152600401808060200182810382526022815260200180611bc86022913960400191505060405180910390fd5b600280546001600160801b0319166001600160801b0392909216919091179055565b6006546001600160a01b031681565b6000546001600160a01b031681565b6000908152600560205260409020805460019091015469ffffffffffffffffffff821692600160501b830460ff90811693600160581b81049091169264ffffffffff811692650100000000009091046001600160d81b031691600160601b90046001600160a01b031690565b6002546001600160801b031681565b660110d9316ec00081565b66038d7ea4c6800081565b6006546001600160a01b031633146112a05760405162461bcd60e51b815260040180806020018281038252602c815260200180611c82602c913960400191505060405180910390fd5b604080516020808201859052825180830382018152918301835281519181019190912060008181526005909252919020600181015464ffffffffff1643811061131a5760405162461bcd60e51b8152600401808060200182810382526033815260200180611c4f6033913960400191505060405180910390fd5b60fa810143111561135c5760405162461bcd60e51b8152600401808060200182810382526022815260200180611d926022913960400191505060405180910390fd5b838140146113a5576040805162461bcd60e51b8152602060048201526011602482015270189b1bd8dad2185cda081a5b9d985b1a59607a1b604482015290519081900360640190fd5b6113b1828686866119c1565b5050505050565b6000546001600160a01b03163314806113db57506001546001600160a01b031633145b6114165760405162461bcd60e51b8152600401808060200182810382526026815260200180611d1a6026913960400191505060405180910390fd5b30318111156114565760405162461bcd60e51b8152600401808060200182810382526024815260200180611cae6024913960400191505060405180910390fd5b60045430316001600160801b03808316600160801b909304811692909201909116820111156114c0576040805162461bcd60e51b81526020600482015260116024820152702737ba1032b737bab3b410333ab732399760791b604482015290519081900360640190fd5b600480546001600160801b031981166001600160801b039182169390930116919091179055565b6000546001600160a01b031633148061150a57506001546001600160a01b031633145b6115455760405162461bcd60e51b8152600401808060200182810382526026815260200180611d1a6026913960400191505060405180910390fd5b600380546001600160a01b0319166001600160a01b0392909216919091179055565b600454600160801b90046001600160801b031681565b6000818152600560205260409020805469ffffffffffffffffffff16806115d55760405162461bcd60e51b8152600401808060200182810382526022815260200180611c0c6022913960400191505060405180910390fd5b600182015464ffffffffff1660fa0143116116215760405162461bcd60e51b8152600401808060200182810382526022815260200180611d926022913960400191505060405180910390fd5b815469ffffffffffffffffffff1916808355600090819061165790849060ff600160501b8204811691600160581b9004166118be565b600480546001600160801b03600160801b808304821686900382160291811691909117918290559294509092501681116116ae57600480546001600160801b03808216849003166001600160801b03199091161790555b83546113b190600160601b90046001600160a01b031684808861174c565b6000546001600160a01b03163314806116ef57506001546001600160a01b031633145b61172a5760405162461bcd60e51b8152600401808060200182810382526026815260200180611d1a6026913960400191505060405180910390fd5b600680546001600160a01b0319166001600160a01b0392909216919091179055565b6040516001600160a01b0385169084156108fc029085906000818181858888f19350505050156117be57604080518381526020810183905281516001600160a01b038716927f9643c1b5b172b26d5f028be7fe646349bd5e3cd9367bb18f9e825afa828b7d93928290030190a2611802565b604080518481526020810183905281516001600160a01b038716927f0272d3e6608bc3ec0a0f28404d8d5ccf282a8e65df305ee6dfac9cec38a3a745928290030190a25b50505050565b603f7e0104104104104104104104104104104104104104104104104104104104104179200000000010000000000800000000040000000002000000000164ffffffffff851602160660015b828110156118b75760289390931c92603f64ffffffffff8516792000000000100000000008000000000400000000020000000001027e0104104104104104104104104104104104104104104104104104104104104116069190910190600101611853565b5092915050565b6000808260001080156118d15750838311155b611922576040805162461bcd60e51b815260206004820152601d60248201527f57696e2070726f626162696c697479206f7574206f662072616e67652e000000604482015290519081900360640190fd5b67016345785d8a0000851015611939576000611942565b66038d7ea4c680005b90506127106062860204660110d9316ec0008110156119655750660110d9316ec0005b8582820111156119a65760405162461bcd60e51b8152600401808060200182810382526022815260200180611bea6022913960400191505060405180910390fd5b8385838389030302816119b557fe5b04925050935093915050565b835469ffffffffffffffffffff81169060ff600160501b8204811691600160581b8104909116906001600160a01b03600160601b9091041683611a355760405162461bcd60e51b8152600401808060200182810382526022815260200180611c0c6022913960400191505060405180910390fd5b875469ffffffffffffffffffff191688556040805160208082018a9052818301899052825180830384018152606090920190925280519101206000848281611a7957fe5b069050600080611a8a8888886118be565b909250905060008060648914801590611aa4575060d88911155b15611ad55760018e0154600286900a65010000000000909104166001600160d81b031615611ad0578391505b611ae1565b87851015611ae1578391505b600480546001600160801b03600160801b8083048216889003821602911617905567016345785d8a00008a10611b4f5760006103e88a8881611b1f57fe5b0481611b2757fe5b06905080611b4d57600480546001600160801b031981169091556001600160801b031691505b505b8015611b995760408051828152602081018d905281516001600160a01b038a16927f16ea4dcfd06c1efb1dd2edf3c766c9a9b9c1d73cbd8ddf4359bd396171229950928290030190a25b611bb78783830115611bad57828401611bb0565b60015b848e61174c565b505050505050505050505050505056fe6d617850726f6669742073686f756c6420626520612073616e65206e756d6265722e42657420646f65736e2774206576656e20636f76657220686f75736520656467652e4265742073686f756c6420626520696e20616e2027616374697665272073746174654265742073686f756c6420626520696e20612027636c65616e272073746174652e736574746c6542657420696e207468652073616d6520626c6f636b20617320706c6163654265742c206f72206265666f72652e4f6e6c7943726f7570696572206d6574686f64732063616c6c6564206279206e6f6e2d63726f75706965722e496e63726561736520616d6f756e74206c6172676572207468616e2062616c616e63652e416c6c20626574732073686f756c642062652070726f6365737365642028736574746c6564206f7220726566756e64656429206265666f72652073656c662d64657374727563742e4f6e6c794f776e6572206d6574686f64732063616c6c6564206279206e6f6e2d6f776e65722e576974686472617720616d6f756e74206c6172676572207468616e2062616c616e63652e48696768206d6f64756c6f2072616e67652c206265744d61736b206c6172676572207468616e206d6f64756c6f2e426c6f636b686173682063616e277420626520717565726965642062792045564d2ea265627a7a723058205c8c29034e69af5308905581a7388953d4755505b0e8238799c36bf250e6480e64736f6c634300050a00326d617850726f6669742073686f756c6420626520612073616e65206e756d6265722e",
    "sourcePath": "/Users/cy/personal/zhuofanxu.github.io/contracts/dice.sol",
    "compiler": {
        "name": "solc",
        "version": "0.5.10+commit.5a6ea5b1"
    },
    "functionHashes": {
        "HOUSE_EDGE_MINIMUM_AMOUNT()": "bcce6040",
        "HOUSE_EDGE_OF_TEN_THOUSAND()": "537af6c4",
        "JACKPOT_FEE()": "bf020f61",
        "JACKPOT_MODULO()": "01f60217",
        "MIN_JACKPOT_BET()": "0cf9349d",
        "croupier()": "6b5c5f39",
        "getBetInfo(uint256)": "79141f80",
        "getBetInfoByReveal(uint256)": "07220134",
        "increaseJackpot(uint256)": "d6d30a51",
        "jackpotSize()": "57246d23",
        "kill()": "41c0e1b5",
        "killed()": "1f3a0e41",
        "lockedInBets()": "df88126f",
        "maxProfit()": "b539cd55",
        "owner1()": "73688914",
        "owner2()": "52709725",
        "placeBet(uint256,uint256,uint256,uint256,bytes32,bytes32,uint256)": "403a0a78",
        "refundBet(uint256)": "e1fdb4b4",
        "secretSigner()": "4d61537f",
        "setCroupier(address)": "f8bb201c",
        "setMaxProfit(uint128)": "5f7bb7f1",
        "setOwner1(address)": "1b580620",
        "setOwner2(address)": "5825884f",
        "setSecretSigner(address)": "d702087f",
        "settleBet(uint256,bytes32)": "ca722cdc",
        "withdrawFunds(address,uint256)": "c1075329"
    },
    "gasEstimates": {
        "creation": {
            "codeDepositCost": "1531200",
            "executionCost": "infinite",
            "totalCost": "infinite"
        },
        "external": {
            "": "infinite",
            "HOUSE_EDGE_MINIMUM_AMOUNT()": "309",
            "HOUSE_EDGE_OF_TEN_THOUSAND()": "243",
            "JACKPOT_FEE()": "331",
            "JACKPOT_MODULO()": "222",
            "MIN_JACKPOT_BET()": "266",
            "croupier()": "460",
            "getBetInfo(uint256)": "1075",
            "getBetInfoByReveal(uint256)": "1299",
            "increaseJackpot(uint256)": "infinite",
            "jackpotSize()": "504",
            "kill()": "infinite",
            "killed()": "539",
            "lockedInBets()": "520",
            "maxProfit()": "526",
            "owner1()": "482",
            "owner2()": "527",
            "placeBet(uint256,uint256,uint256,uint256,bytes32,bytes32,uint256)": "infinite",
            "refundBet(uint256)": "infinite",
            "secretSigner()": "505",
            "setCroupier(address)": "infinite",
            "setMaxProfit(uint128)": "infinite",
            "setOwner1(address)": "infinite",
            "setOwner2(address)": "infinite",
            "setSecretSigner(address)": "infinite",
            "settleBet(uint256,bytes32)": "infinite",
            "withdrawFunds(address,uint256)": "infinite"
        },
        "internal": {
            "getDiceWinAmount(uint256,uint256,uint256)": "infinite",
            "getRollUnder(uint256,uint256)": "infinite",
            "sendFunds(address payable,uint256,uint256,uint256)": "infinite",
            "settleBetCommon(struct FckDice.Bet storage pointer,uint256,bytes32,uint256)": "infinite"
        }
    }
}